{
  "contractName": "ItemManager",
  "abi": [
    {
      "anonymous": false,
      "inputs": [
        {
          "indexed": false,
          "internalType": "uint256",
          "name": "_itemIndex",
          "type": "uint256"
        },
        {
          "indexed": false,
          "internalType": "uint256",
          "name": "_step",
          "type": "uint256"
        },
        {
          "indexed": false,
          "internalType": "address",
          "name": "_address",
          "type": "address"
        }
      ],
      "name": "SupplyChainStep",
      "type": "event"
    },
    {
      "inputs": [],
      "name": "_owner",
      "outputs": [
        {
          "internalType": "address",
          "name": "",
          "type": "address"
        }
      ],
      "stateMutability": "view",
      "type": "function",
      "constant": true
    },
    {
      "inputs": [],
      "name": "isOwner",
      "outputs": [
        {
          "internalType": "bool",
          "name": "",
          "type": "bool"
        }
      ],
      "stateMutability": "view",
      "type": "function",
      "constant": true
    },
    {
      "inputs": [
        {
          "internalType": "uint256",
          "name": "",
          "type": "uint256"
        }
      ],
      "name": "items",
      "outputs": [
        {
          "internalType": "enum ItemManager.SupplyChain",
          "name": "_step",
          "type": "uint8"
        },
        {
          "internalType": "string",
          "name": "_identifier",
          "type": "string"
        },
        {
          "internalType": "contract Item",
          "name": "_item",
          "type": "address"
        }
      ],
      "stateMutability": "view",
      "type": "function",
      "constant": true
    },
    {
      "inputs": [
        {
          "internalType": "string",
          "name": "_identifier",
          "type": "string"
        },
        {
          "internalType": "uint256",
          "name": "_priceInWei",
          "type": "uint256"
        }
      ],
      "name": "createItem",
      "outputs": [],
      "stateMutability": "nonpayable",
      "type": "function"
    },
    {
      "inputs": [
        {
          "internalType": "uint256",
          "name": "_index",
          "type": "uint256"
        }
      ],
      "name": "triggerPayment",
      "outputs": [],
      "stateMutability": "payable",
      "type": "function",
      "payable": true
    },
    {
      "inputs": [
        {
          "internalType": "uint256",
          "name": "_index",
          "type": "uint256"
        }
      ],
      "name": "triggerDelivery",
      "outputs": [],
      "stateMutability": "nonpayable",
      "type": "function"
    },
    {
      "inputs": [],
      "name": "getAllItems",
      "outputs": [
        {
          "components": [
            {
              "internalType": "enum ItemManager.SupplyChain",
              "name": "_step",
              "type": "uint8"
            },
            {
              "internalType": "string",
              "name": "_identifier",
              "type": "string"
            },
            {
              "internalType": "contract Item",
              "name": "_item",
              "type": "address"
            }
          ],
          "internalType": "struct ItemManager.S_Item[]",
          "name": "",
          "type": "tuple[]"
        }
      ],
      "stateMutability": "view",
      "type": "function",
      "constant": true
    }
  ],
  "bytecode": "0x608060405234801561001057600080fd5b50336000806101000a81548173ffffffffffffffffffffffffffffffffffffffff021916908373ffffffffffffffffffffffffffffffffffffffff1602179055506117f9806100606000396000f3fe6080604052600436106100705760003560e01c80638f32d59b1161004e5780638f32d59b146100e5578063b2bdfa7b14610110578063bfb231d21461013b578063cd31831e1461017a57610070565b80634ba1d6aa14610075578063800fb83f146100a05780638c551742146100bc575b600080fd5b34801561008157600080fd5b5061008a6101a3565b6040516100979190610f88565b60405180910390f35b6100ba60048036038101906100b59190610c23565b610378565b005b3480156100c857600080fd5b506100e360048036038101906100de9190610bcf565b6105de565b005b3480156100f157600080fd5b506100fa610781565b6040516101079190610faa565b60405180910390f35b34801561011c57600080fd5b506101256107d8565b6040516101329190610f6d565b60405180910390f35b34801561014757600080fd5b50610162600480360381019061015d9190610c23565b6107fc565b60405161017193929190610ffc565b60405180910390f35b34801561018657600080fd5b506101a1600480360381019061019c9190610c23565b6108eb565b005b60608060025467ffffffffffffffff811180156101bf57600080fd5b506040519080825280602002602001820160405280156101f957816020015b6101e6610a65565b8152602001906001900390816101de5790505b50905060005b60025481101561037057600160008281526020019081526020016000206040518060600160405290816000820160009054906101000a900460ff16600281111561024557fe5b600281111561025057fe5b8152602001600182018054600181600116156101000203166002900480601f0160208091040260200160405190810160405280929190818152602001828054600181600116156101000203166002900480156102ed5780601f106102c2576101008083540402835291602001916102ed565b820191906000526020600020905b8154815290600101906020018083116102d057829003601f168201915b505050505081526020016002820160009054906101000a900473ffffffffffffffffffffffffffffffffffffffff1673ffffffffffffffffffffffffffffffffffffffff1673ffffffffffffffffffffffffffffffffffffffff168152505082828151811061035857fe5b602002602001018190525080806001019150506101ff565b508091505090565b60006001600083815260200190815260200160002060020160009054906101000a900473ffffffffffffffffffffffffffffffffffffffff1690503373ffffffffffffffffffffffffffffffffffffffff168173ffffffffffffffffffffffffffffffffffffffff1614610421576040517f08c379a00000000000000000000000000000000000000000000000000000000081526004016104189061109a565b60405180910390fd5b348173ffffffffffffffffffffffffffffffffffffffff16633c8da5886040518163ffffffff1660e01b815260040160206040518083038186803b15801561046857600080fd5b505afa15801561047c573d6000803e3d6000fd5b505050506040513d601f19601f820116820180604052508101906104a09190610c4c565b146104e0576040517f08c379a00000000000000000000000000000000000000000000000000000000081526004016104d79061107a565b60405180910390fd5b600060028111156104ed57fe5b6001600084815260200190815260200160002060000160009054906101000a900460ff16600281111561051c57fe5b1461055c576040517f08c379a00000000000000000000000000000000000000000000000000000000081526004016105539061103a565b60405180910390fd5b600180600084815260200190815260200160002060000160006101000a81548160ff0219169083600281111561058e57fe5b02179055507fa4035636e99f06b7651a604c1019fa4e8779fe68ef27eeb74dff2de348f6199b82600160028111156105c257fe5b836040516105d2939291906110ba565b60405180910390a15050565b6105e6610781565b610625576040517f08c379a000000000000000000000000000000000000000000000000000000000815260040161061c9061105a565b60405180910390fd5b6000308260025460405161063890610aa7565b61064493929190610fc5565b604051809103906000f080158015610660573d6000803e3d6000fd5b5090508060016000600254815260200190815260200160002060020160006101000a81548173ffffffffffffffffffffffffffffffffffffffff021916908373ffffffffffffffffffffffffffffffffffffffff160217905550600060016000600254815260200190815260200160002060000160006101000a81548160ff021916908360028111156106ef57fe5b0217905550826001600060025481526020019081526020016000206001019080519060200190610720929190610ab4565b507fa4035636e99f06b7651a604c1019fa4e8779fe68ef27eeb74dff2de348f6199b6002546000600281111561075257fe5b83604051610762939291906110ba565b60405180910390a1600260008154809291906001019190505550505050565b60008060009054906101000a900473ffffffffffffffffffffffffffffffffffffffff1673ffffffffffffffffffffffffffffffffffffffff163373ffffffffffffffffffffffffffffffffffffffff1614905090565b60008054906101000a900473ffffffffffffffffffffffffffffffffffffffff1681565b60016020528060005260406000206000915090508060000160009054906101000a900460ff1690806001018054600181600116156101000203166002900480601f0160208091040260200160405190810160405280929190818152602001828054600181600116156101000203166002900480156108bb5780601f10610890576101008083540402835291602001916108bb565b820191906000526020600020905b81548152906001019060200180831161089e57829003601f168201915b5050505050908060020160009054906101000a900473ffffffffffffffffffffffffffffffffffffffff16905083565b6108f3610781565b610932576040517f08c379a00000000000000000000000000000000000000000000000000000000081526004016109299061105a565b60405180910390fd5b6001600281111561093f57fe5b6001600083815260200190815260200160002060000160009054906101000a900460ff16600281111561096e57fe5b146109ae576040517f08c379a00000000000000000000000000000000000000000000000000000000081526004016109a59061103a565b60405180910390fd5b60026001600083815260200190815260200160002060000160006101000a81548160ff021916908360028111156109e157fe5b02179055507fa4035636e99f06b7651a604c1019fa4e8779fe68ef27eeb74dff2de348f6199b81600280811115610a1457fe5b6001600085815260200190815260200160002060020160009054906101000a900473ffffffffffffffffffffffffffffffffffffffff16604051610a5a939291906110ba565b60405180910390a150565b604051806060016040528060006002811115610a7d57fe5b815260200160608152602001600073ffffffffffffffffffffffffffffffffffffffff1681525090565b6104b18061131383390190565b828054600181600116156101000203166002900490600052602060002090601f016020900481019282601f10610af557805160ff1916838001178555610b23565b82800160010185558215610b23579182015b82811115610b22578251825591602001919060010190610b07565b5b509050610b309190610b34565b5090565b5b80821115610b4d576000816000905550600101610b35565b5090565b600082601f830112610b6257600080fd5b8135610b75610b708261111e565b6110f1565b91508082526020830160208301858383011115610b9157600080fd5b610b9c83828461129b565b50505092915050565b600081359050610bb4816112fb565b92915050565b600081519050610bc9816112fb565b92915050565b60008060408385031215610be257600080fd5b600083013567ffffffffffffffff811115610bfc57600080fd5b610c0885828601610b51565b9250506020610c1985828601610ba5565b9150509250929050565b600060208284031215610c3557600080fd5b6000610c4384828501610ba5565b91505092915050565b600060208284031215610c5e57600080fd5b6000610c6c84828501610bba565b91505092915050565b6000610c818383610f0e565b905092915050565b610c928161120b565b82525050565b610ca1816111b0565b82525050565b6000610cb28261115a565b610cbc818561117d565b935083602082028501610cce8561114a565b8060005b85811015610d0a5784840389528151610ceb8582610c75565b9450610cf683611170565b925060208a01995050600181019050610cd2565b50829750879550505050505092915050565b610d25816111c2565b82525050565b610d348161121d565b82525050565b610d4381611241565b82525050565b610d5281611241565b82525050565b610d6181611265565b82525050565b610d7081611265565b82525050565b6000610d8182611165565b610d8b818561118e565b9350610d9b8185602086016112aa565b610da4816112dd565b840191505092915050565b6000610dba82611165565b610dc4818561119f565b9350610dd48185602086016112aa565b610ddd816112dd565b840191505092915050565b6000610df5601c8361119f565b91507f4974656d206973206675727468657220696e2074686520636861696e000000006000830152602082019050919050565b6000610e3560208361119f565b91507f4f776e61626c653a2063616c6c6572206973206e6f7420746865206f776e65726000830152602082019050919050565b6000610e7560128361119f565b91507f4e6f742066756c6c7920706169642079657400000000000000000000000000006000830152602082019050919050565b6000610eb5602b8361119f565b91507f4f6e6c79206974656d732061726520616c6c6f77656420746f2075706461746560008301527f207468656d73656c7665730000000000000000000000000000000000000000006020830152604082019050919050565b6000606083016000830151610f266000860182610d58565b5060208301518482036020860152610f3e8282610d76565b9150506040830151610f536040860182610d3a565b508091505092915050565b610f6781611201565b82525050565b6000602082019050610f826000830184610c98565b92915050565b60006020820190508181036000830152610fa28184610ca7565b905092915050565b6000602082019050610fbf6000830184610d1c565b92915050565b6000606082019050610fda6000830186610d2b565b610fe76020830185610f5e565b610ff46040830184610f5e565b949350505050565b60006060820190506110116000830186610d67565b81810360208301526110238185610daf565b90506110326040830184610d49565b949350505050565b6000602082019050818103600083015261105381610de8565b9050919050565b6000602082019050818103600083015261107381610e28565b9050919050565b6000602082019050818103600083015261109381610e68565b9050919050565b600060208201905081810360008301526110b381610ea8565b9050919050565b60006060820190506110cf6000830186610f5e565b6110dc6020830185610f5e565b6110e96040830184610c89565b949350505050565b6000604051905081810181811067ffffffffffffffff8211171561111457600080fd5b8060405250919050565b600067ffffffffffffffff82111561113557600080fd5b601f19601f8301169050602081019050919050565b6000819050602082019050919050565b600081519050919050565b600081519050919050565b6000602082019050919050565b600082825260208201905092915050565b600082825260208201905092915050565b600082825260208201905092915050565b60006111bb826111e1565b9050919050565b60008115159050919050565b60008190506111dc826112ee565b919050565b600073ffffffffffffffffffffffffffffffffffffffff82169050919050565b6000819050919050565b600061121682611277565b9050919050565b60006112288261122f565b9050919050565b600061123a826111e1565b9050919050565b600061124c82611253565b9050919050565b600061125e826111e1565b9050919050565b6000611270826111ce565b9050919050565b600061128282611289565b9050919050565b6000611294826111e1565b9050919050565b82818337600083830152505050565b60005b838110156112c85780820151818401526020810190506112ad565b838111156112d7576000848401525b50505050565b6000601f19601f8301169050919050565b600381106112f857fe5b50565b61130481611201565b811461130f57600080fd5b5056fe608060405234801561001057600080fd5b506040516104b13803806104b18339818101604052606081101561003357600080fd5b81019080805190602001909291908051906020019092919080519060200190929190505050816000819055508060028190555082600360006101000a81548173ffffffffffffffffffffffffffffffffffffffff021916908373ffffffffffffffffffffffffffffffffffffffff1602179055505050506103f8806100b96000396000f3fe6080604052600436106100385760003560e01c80632986c0e51461030e5780633c8da5881461033957806383d12eef14610364576102ff565b366102ff576000543414610097576040517f08c379a00000000000000000000000000000000000000000000000000000000081526004018080602001828103825260218152602001806103a26021913960400191505060405180910390fd5b60006001541461010f576040517f08c379a00000000000000000000000000000000000000000000000000000000081526004018080602001828103825260148152602001807f4974656d20697320616c7265616479207061696400000000000000000000000081525060200191505060405180910390fd5b346001600082825401925050819055506000600360009054906101000a900473ffffffffffffffffffffffffffffffffffffffff1673ffffffffffffffffffffffffffffffffffffffff1634600254604051602401808281526020019150506040516020818303038152906040527f800fb83f000000000000000000000000000000000000000000000000000000007bffffffffffffffffffffffffffffffffffffffffffffffffffffffff19166020820180517bffffffffffffffffffffffffffffffffffffffffffffffffffffffff83818316178352505050506040518082805190602001908083835b6020831061021e57805182526020820191506020810190506020830392506101fb565b6001836020036101000a03801982511681845116808217855250505050505090500191505060006040518083038185875af1925050503d8060008114610280576040519150601f19603f3d011682016040523d82523d6000602084013e610285565b606091505b50509050806102fc576040517f08c379a00000000000000000000000000000000000000000000000000000000081526004018080602001828103825260158152602001807f44656c697665727920646964206e6f7420776f726b000000000000000000000081525060200191505060405180910390fd5b50005b34801561030b57600080fd5b50005b34801561031a57600080fd5b5061032361038f565b6040518082815260200191505060405180910390f35b34801561034557600080fd5b5061034e610395565b6040518082815260200191505060405180910390f35b34801561037057600080fd5b5061037961039b565b6040518082815260200191505060405180910390f35b60025481565b60005481565b6001548156fe576520646f6e277420737570706f7274207061727469616c207061796d656e7473a2646970667358221220b470570910dff4d5e9dc2e5f7ac2cf5bc8dc3cb86a197593ae5fd13cab06bbc664736f6c634300060c0033a2646970667358221220f0653b79895ab52646e32324d28017772f71e7adac6b6e1fb4a4ecb75638259964736f6c634300060c0033",
  "immutableReferences": {},
  "source": "//SPDX-License-Identifier: MIT\npragma solidity ^0.6.0;\npragma experimental ABIEncoderV2;\n\nimport \"./Item.sol\";\nimport \"./Ownable.sol\";\n\ncontract ItemManager is Ownable {\n    enum SupplyChain { Created, Paid, Delivered }\n\n    struct S_Item {\n        SupplyChain _step;\n        string _identifier;\n        Item _item;\n    }\n\n    mapping(uint => S_Item) public items;\n    uint index;\n    \n    event SupplyChainStep(uint _itemIndex, uint _step, address _address);\n\n    function createItem(string memory _identifier, uint _priceInWei) public  OnlyOwner {\n        Item item = new Item(this, _priceInWei, index);\n        items[index]._item = item;\n        items[index]._step = SupplyChain.Created;\n        items[index]._identifier = _identifier;\n        emit SupplyChainStep(index, uint(SupplyChain.Created), address(item));\n        index++;\n    }\n\n    function triggerPayment(uint _index) public payable {\n        Item item = items[_index]._item;\n        require(address(item) == msg.sender, \"Only items are allowed to update themselves\");\n        require(item.priceInWei() == msg.value, \"Not fully paid yet\");\n        require(items[_index]._step == SupplyChain.Created, \"Item is further in the chain\");\n        items[_index]._step = SupplyChain.Paid;\n        emit SupplyChainStep(_index, uint(SupplyChain.Paid), address(item));\n    }\n\n    function triggerDelivery(uint _index) public OnlyOwner {\n        require(items[_index]._step == SupplyChain.Paid, \"Item is further in the chain\");\n        items[_index]._step = SupplyChain.Delivered;\n        emit SupplyChainStep(_index, uint(SupplyChain.Delivered), address(items[_index]._item));\n    }\n\n    function getAllItems() public view returns(S_Item[] memory) {\n        S_Item[] memory _items = new S_Item[](index);\n        for (uint i = 0; i < index; i++) {\n            _items[i] = items[i];\n        }\n        return _items;\n    }\n\n}",
  "sourcePath": "/home/jsan/projects/supply-chain-blockchain/contracts/ItemManager.sol",
  "compiler": {
    "name": "solc",
    "version": "0.6.12+commit.27d51765.Emscripten.clang"
  },
  "schemaVersion": "3.4.5",
  "updatedAt": "2022-03-13T10:10:55.831Z",
  "networkType": "ethereum",
  "devdoc": {
    "kind": "dev",
    "methods": {},
    "version": 1
  },
  "userdoc": {
    "kind": "user",
    "methods": {},
    "version": 1
  }
}